{
  "_format": "hh-sol-artifact-1",
  "contractName": "BallotArchive",
  "sourceName": "contracts/BallotArchive.sol",
  "abi": [
    {
      "inputs": [],
      "stateMutability": "nonpayable",
      "type": "constructor"
    },
    {
      "inputs": [],
      "name": "archiveAddress",
      "outputs": [
        {
          "internalType": "address",
          "name": "",
          "type": "address"
        }
      ],
      "stateMutability": "view",
      "type": "function"
    },
    {
      "inputs": [],
      "name": "archiveOwner",
      "outputs": [
        {
          "internalType": "address",
          "name": "",
          "type": "address"
        }
      ],
      "stateMutability": "view",
      "type": "function"
    },
    {
      "inputs": [],
      "name": "ballotCount",
      "outputs": [
        {
          "internalType": "uint256",
          "name": "",
          "type": "uint256"
        }
      ],
      "stateMutability": "view",
      "type": "function"
    },
    {
      "inputs": [
        {
          "internalType": "address",
          "name": "_creator",
          "type": "address"
        },
        {
          "internalType": "address",
          "name": "_ballot",
          "type": "address"
        }
      ],
      "name": "createNewBallot",
      "outputs": [],
      "stateMutability": "nonpayable",
      "type": "function"
    },
    {
      "inputs": [],
      "name": "getAllBallots",
      "outputs": [
        {
          "internalType": "address[]",
          "name": "",
          "type": "address[]"
        }
      ],
      "stateMutability": "view",
      "type": "function"
    },
    {
      "inputs": [
        {
          "internalType": "address",
          "name": "_ballot",
          "type": "address"
        }
      ],
      "name": "getBallotByAddress",
      "outputs": [
        {
          "internalType": "address",
          "name": "",
          "type": "address"
        }
      ],
      "stateMutability": "view",
      "type": "function"
    },
    {
      "inputs": [
        {
          "internalType": "address",
          "name": "_creator",
          "type": "address"
        }
      ],
      "name": "getBallotsByCreator",
      "outputs": [
        {
          "internalType": "address[]",
          "name": "",
          "type": "address[]"
        }
      ],
      "stateMutability": "view",
      "type": "function"
    }
  ],
  "bytecode": "0x6080604052600160025534801561001557600080fd5b5033600160006101000a81548173ffffffffffffffffffffffffffffffffffffffff021916908373ffffffffffffffffffffffffffffffffffffffff160217905550306000806101000a81548173ffffffffffffffffffffffffffffffffffffffff021916908373ffffffffffffffffffffffffffffffffffffffff160217905550610927806100a66000396000f3fe608060405234801561001057600080fd5b506004361061007c5760003560e01c80633450eee11161005b5780633450eee1146100ed5780637862c1b81461011d578063c003003214610139578063c3450c5e146101575761007c565b80621d3c0d146100815780630b8710e41461009f578063105f6302146100bd575b600080fd5b610089610175565b60405161009691906105e7565b60405180910390f35b6100a761019b565b6040516100b491906106c0565b60405180910390f35b6100d760048036038101906100d29190610713565b6102b1565b6040516100e491906105e7565b60405180910390f35b61010760048036038101906101029190610713565b610309565b60405161011491906106c0565b60405180910390f35b61013760048036038101906101329190610740565b6103d6565b005b61014161057c565b60405161014e9190610799565b60405180910390f35b61015f610582565b60405161016c91906105e7565b60405180910390f35b600160009054906101000a900473ffffffffffffffffffffffffffffffffffffffff1681565b6060600060016002546101ae91906107e3565b67ffffffffffffffff8111156101c7576101c6610817565b5b6040519080825280602002602001820160405280156101f55781602001602082028036833780820191505090505b5090506000600190505b6002548110156102a9576005600082815260200190815260200160002060009054906101000a900473ffffffffffffffffffffffffffffffffffffffff168260018361024b91906107e3565b8151811061025c5761025b610846565b5b602002602001019073ffffffffffffffffffffffffffffffffffffffff16908173ffffffffffffffffffffffffffffffffffffffff168152505080806102a190610875565b9150506101ff565b508091505090565b600080600460008473ffffffffffffffffffffffffffffffffffffffff1673ffffffffffffffffffffffffffffffffffffffff1681526020019081526020016000205411610300576000610302565b815b9050919050565b6060600360008373ffffffffffffffffffffffffffffffffffffffff1673ffffffffffffffffffffffffffffffffffffffff1681526020019081526020016000208054806020026020016040519081016040528092919081815260200182805480156103ca57602002820191906000526020600020905b8160009054906101000a900473ffffffffffffffffffffffffffffffffffffffff1673ffffffffffffffffffffffffffffffffffffffff1681526020019060010190808311610380575b50505050509050919050565b806000600460008373ffffffffffffffffffffffffffffffffffffffff1673ffffffffffffffffffffffffffffffffffffffff168152602001908152602001600020541461042357600080fd5b600360008473ffffffffffffffffffffffffffffffffffffffff1673ffffffffffffffffffffffffffffffffffffffff168152602001908152602001600020829080600181540180825580915050600190039060005260206000200160009091909190916101000a81548173ffffffffffffffffffffffffffffffffffffffff021916908373ffffffffffffffffffffffffffffffffffffffff160217905550600254600460008473ffffffffffffffffffffffffffffffffffffffff1673ffffffffffffffffffffffffffffffffffffffff168152602001908152602001600020819055508160056000600254815260200190815260200160002060006101000a81548173ffffffffffffffffffffffffffffffffffffffff021916908373ffffffffffffffffffffffffffffffffffffffff16021790555060016002600082825461057091906108bd565b92505081905550505050565b60025481565b60008054906101000a900473ffffffffffffffffffffffffffffffffffffffff1681565b600073ffffffffffffffffffffffffffffffffffffffff82169050919050565b60006105d1826105a6565b9050919050565b6105e1816105c6565b82525050565b60006020820190506105fc60008301846105d8565b92915050565b600081519050919050565b600082825260208201905092915050565b6000819050602082019050919050565b610637816105c6565b82525050565b6000610649838361062e565b60208301905092915050565b6000602082019050919050565b600061066d82610602565b610677818561060d565b93506106828361061e565b8060005b838110156106b357815161069a888261063d565b97506106a583610655565b925050600181019050610686565b5085935050505092915050565b600060208201905081810360008301526106da8184610662565b905092915050565b600080fd5b6106f0816105c6565b81146106fb57600080fd5b50565b60008135905061070d816106e7565b92915050565b600060208284031215610729576107286106e2565b5b6000610737848285016106fe565b91505092915050565b60008060408385031215610757576107566106e2565b5b6000610765858286016106fe565b9250506020610776858286016106fe565b9150509250929050565b6000819050919050565b61079381610780565b82525050565b60006020820190506107ae600083018461078a565b92915050565b7f4e487b7100000000000000000000000000000000000000000000000000000000600052601160045260246000fd5b60006107ee82610780565b91506107f983610780565b9250828203905081811115610811576108106107b4565b5b92915050565b7f4e487b7100000000000000000000000000000000000000000000000000000000600052604160045260246000fd5b7f4e487b7100000000000000000000000000000000000000000000000000000000600052603260045260246000fd5b600061088082610780565b91507fffffffffffffffffffffffffffffffffffffffffffffffffffffffffffffffff82036108b2576108b16107b4565b5b600182019050919050565b60006108c882610780565b91506108d383610780565b92508282019050808211156108eb576108ea6107b4565b5b9291505056fea2646970667358221220ada734f6005b12fb26cd63b97eb4a442b1afaacaa781abb1d36e664cf035dd6164736f6c63430008110033",
  "linkReferences": {},
  "deployedLinkReferences": {}
}