{
  "_format": "hh-sol-artifact-1",
  "contractName": "BallotOpen",
  "sourceName": "contracts/BallotOpen.sol",
  "abi": [
    {
      "inputs": [
        {
          "internalType": "address",
          "name": "_archiveAddress",
          "type": "address"
        },
        {
          "internalType": "string",
          "name": "_title",
          "type": "string"
        },
        {
          "internalType": "string",
          "name": "_metainfo",
          "type": "string"
        },
        {
          "internalType": "uint256",
          "name": "_votingDays",
          "type": "uint256"
        }
      ],
      "stateMutability": "nonpayable",
      "type": "constructor"
    },
    {
      "inputs": [],
      "name": "getFullBallotInformation",
      "outputs": [
        {
          "internalType": "address",
          "name": "",
          "type": "address"
        },
        {
          "internalType": "address",
          "name": "",
          "type": "address"
        },
        {
          "internalType": "address",
          "name": "",
          "type": "address"
        },
        {
          "internalType": "string",
          "name": "",
          "type": "string"
        },
        {
          "internalType": "string",
          "name": "",
          "type": "string"
        },
        {
          "internalType": "uint256",
          "name": "",
          "type": "uint256"
        },
        {
          "internalType": "uint256",
          "name": "",
          "type": "uint256"
        },
        {
          "internalType": "uint256",
          "name": "",
          "type": "uint256"
        },
        {
          "internalType": "uint256",
          "name": "",
          "type": "uint256"
        }
      ],
      "stateMutability": "view",
      "type": "function"
    },
    {
      "inputs": [
        {
          "internalType": "uint8",
          "name": "_choice",
          "type": "uint8"
        }
      ],
      "name": "vote",
      "outputs": [],
      "stateMutability": "nonpayable",
      "type": "function"
    },
    {
      "inputs": [
        {
          "internalType": "address",
          "name": "",
          "type": "address"
        }
      ],
      "name": "votes",
      "outputs": [
        {
          "internalType": "uint8",
          "name": "",
          "type": "uint8"
        }
      ],
      "stateMutability": "view",
      "type": "function"
    }
  ],
  "bytecode": "0x60806040523480156200001157600080fd5b506040516200118838038062001188833981810160405281019062000037919062000526565b6040518061012001604052808573ffffffffffffffffffffffffffffffffffffffff1681526020013373ffffffffffffffffffffffffffffffffffffffff1681526020013073ffffffffffffffffffffffffffffffffffffffff1681526020018481526020018381526020014281526020016201518083620000ba919062000605565b42620000c7919062000650565b81526020016000815260200160008152506000808201518160000160006101000a81548173ffffffffffffffffffffffffffffffffffffffff021916908373ffffffffffffffffffffffffffffffffffffffff16021790555060208201518160010160006101000a81548173ffffffffffffffffffffffffffffffffffffffff021916908373ffffffffffffffffffffffffffffffffffffffff16021790555060408201518160020160006101000a81548173ffffffffffffffffffffffffffffffffffffffff021916908373ffffffffffffffffffffffffffffffffffffffff1602179055506060820151816003019081620001c59190620008cc565b506080820151816004019081620001dd9190620008cc565b5060a0820151816005015560c0820151816006015560e0820151816007015561010082015181600801559050506000800160009054906101000a900473ffffffffffffffffffffffffffffffffffffffff1673ffffffffffffffffffffffffffffffffffffffff16637862c1b8600060010160009054906101000a900473ffffffffffffffffffffffffffffffffffffffff16600060020160009054906101000a900473ffffffffffffffffffffffffffffffffffffffff166040518363ffffffff1660e01b8152600401620002b5929190620009c4565b600060405180830381600087803b158015620002d057600080fd5b505af1158015620002e5573d6000803e3d6000fd5b5050505050505050620009f1565b6000604051905090565b600080fd5b600080fd5b600073ffffffffffffffffffffffffffffffffffffffff82169050919050565b6000620003348262000307565b9050919050565b620003468162000327565b81146200035257600080fd5b50565b60008151905062000366816200033b565b92915050565b600080fd5b600080fd5b6000601f19601f8301169050919050565b7f4e487b7100000000000000000000000000000000000000000000000000000000600052604160045260246000fd5b620003c18262000376565b810181811067ffffffffffffffff82111715620003e357620003e262000387565b5b80604052505050565b6000620003f8620002f3565b9050620004068282620003b6565b919050565b600067ffffffffffffffff82111562000429576200042862000387565b5b620004348262000376565b9050602081019050919050565b60005b838110156200046157808201518184015260208101905062000444565b60008484015250505050565b6000620004846200047e846200040b565b620003ec565b905082815260208101848484011115620004a357620004a262000371565b5b620004b084828562000441565b509392505050565b600082601f830112620004d057620004cf6200036c565b5b8151620004e28482602086016200046d565b91505092915050565b6000819050919050565b6200050081620004eb565b81146200050c57600080fd5b50565b6000815190506200052081620004f5565b92915050565b60008060008060808587031215620005435762000542620002fd565b5b6000620005538782880162000355565b945050602085015167ffffffffffffffff81111562000577576200057662000302565b5b6200058587828801620004b8565b935050604085015167ffffffffffffffff811115620005a957620005a862000302565b5b620005b787828801620004b8565b9250506060620005ca878288016200050f565b91505092959194509250565b7f4e487b7100000000000000000000000000000000000000000000000000000000600052601160045260246000fd5b60006200061282620004eb565b91506200061f83620004eb565b92508282026200062f81620004eb565b91508282048414831517620006495762000648620005d6565b5b5092915050565b60006200065d82620004eb565b91506200066a83620004eb565b9250828201905080821115620006855762000684620005d6565b5b92915050565b600081519050919050565b7f4e487b7100000000000000000000000000000000000000000000000000000000600052602260045260246000fd5b60006002820490506001821680620006de57607f821691505b602082108103620006f457620006f362000696565b5b50919050565b60008190508160005260206000209050919050565b60006020601f8301049050919050565b600082821b905092915050565b6000600883026200075e7fffffffffffffffffffffffffffffffffffffffffffffffffffffffffffffffff826200071f565b6200076a86836200071f565b95508019841693508086168417925050509392505050565b6000819050919050565b6000620007ad620007a7620007a184620004eb565b62000782565b620004eb565b9050919050565b6000819050919050565b620007c9836200078c565b620007e1620007d882620007b4565b8484546200072c565b825550505050565b600090565b620007f8620007e9565b62000805818484620007be565b505050565b5b818110156200082d5762000821600082620007ee565b6001810190506200080b565b5050565b601f8211156200087c576200084681620006fa565b62000851846200070f565b8101602085101562000861578190505b6200087962000870856200070f565b8301826200080a565b50505b505050565b600082821c905092915050565b6000620008a16000198460080262000881565b1980831691505092915050565b6000620008bc83836200088e565b9150826002028217905092915050565b620008d7826200068b565b67ffffffffffffffff811115620008f357620008f262000387565b5b620008ff8254620006c5565b6200090c82828562000831565b600060209050601f8311600181146200094457600084156200092f578287015190505b6200093b8582620008ae565b865550620009ab565b601f1984166200095486620006fa565b60005b828110156200097e5784890151825560018201915060208501945060208101905062000957565b868310156200099e57848901516200099a601f8916826200088e565b8355505b6001600288020188555050505b505050505050565b620009be8162000327565b82525050565b6000604082019050620009db6000830185620009b3565b620009ea6020830184620009b3565b9392505050565b6107878062000a016000396000f3fe608060405234801561001057600080fd5b50600436106100415760003560e01c806323640c1b14610046578063b3f98adc1461006c578063d8bff5a514610088575b600080fd5b61004e6100b8565b60405161006399989796959493929190610505565b60405180910390f35b610086600480360381019061008191906105de565b61028e565b005b6100a2600480360381019061009d9190610637565b6103fb565b6040516100af9190610673565b60405180910390f35b60008060006060806000806000806000800160009054906101000a900473ffffffffffffffffffffffffffffffffffffffff16600060010160009054906101000a900473ffffffffffffffffffffffffffffffffffffffff16600060020160009054906101000a900473ffffffffffffffffffffffffffffffffffffffff1660006003016000600401600060050154600060060154600060070154600060080154858054610165906106bd565b80601f0160208091040260200160405190810160405280929190818152602001828054610191906106bd565b80156101de5780601f106101b3576101008083540402835291602001916101de565b820191906000526020600020905b8154815290600101906020018083116101c157829003601f168201915b505050505095508480546101f1906106bd565b80601f016020809104026020016040519081016040528092919081815260200182805461021d906106bd565b801561026a5780601f1061023f5761010080835404028352916020019161026a565b820191906000526020600020905b81548152906001019060200180831161024d57829003601f168201915b50505050509450985098509850985098509850985098509850909192939495969798565b600060060154421061029f57600080fd5b336001600960008373ffffffffffffffffffffffffffffffffffffffff1673ffffffffffffffffffffffffffffffffffffffff16815260200190815260200160002060009054906101000a900460ff1660ff161415801561035057506002600960008373ffffffffffffffffffffffffffffffffffffffff1673ffffffffffffffffffffffffffffffffffffffff16815260200190815260200160002060009054906101000a900460ff1660ff1614155b61035957600080fd5b81600960003373ffffffffffffffffffffffffffffffffffffffff1673ffffffffffffffffffffffffffffffffffffffff16815260200190815260200160002060006101000a81548160ff021916908360ff16021790555060028260ff16036103da576001600060080160008282546103d2919061071d565b925050819055505b6001600060070160008282546103f0919061071d565b925050819055505050565b60096020528060005260406000206000915054906101000a900460ff1681565b600073ffffffffffffffffffffffffffffffffffffffff82169050919050565b60006104468261041b565b9050919050565b6104568161043b565b82525050565b600081519050919050565b600082825260208201905092915050565b60005b8381101561049657808201518184015260208101905061047b565b60008484015250505050565b6000601f19601f8301169050919050565b60006104be8261045c565b6104c88185610467565b93506104d8818560208601610478565b6104e1816104a2565b840191505092915050565b6000819050919050565b6104ff816104ec565b82525050565b60006101208201905061051b600083018c61044d565b610528602083018b61044d565b610535604083018a61044d565b818103606083015261054781896104b3565b9050818103608083015261055b81886104b3565b905061056a60a08301876104f6565b61057760c08301866104f6565b61058460e08301856104f6565b6105926101008301846104f6565b9a9950505050505050505050565b600080fd5b600060ff82169050919050565b6105bb816105a5565b81146105c657600080fd5b50565b6000813590506105d8816105b2565b92915050565b6000602082840312156105f4576105f36105a0565b5b6000610602848285016105c9565b91505092915050565b6106148161043b565b811461061f57600080fd5b50565b6000813590506106318161060b565b92915050565b60006020828403121561064d5761064c6105a0565b5b600061065b84828501610622565b91505092915050565b61066d816105a5565b82525050565b60006020820190506106886000830184610664565b92915050565b7f4e487b7100000000000000000000000000000000000000000000000000000000600052602260045260246000fd5b600060028204905060018216806106d557607f821691505b6020821081036106e8576106e761068e565b5b50919050565b7f4e487b7100000000000000000000000000000000000000000000000000000000600052601160045260246000fd5b6000610728826104ec565b9150610733836104ec565b925082820190508082111561074b5761074a6106ee565b5b9291505056fea2646970667358221220db9d33dddf2349ce72bfc3c4440f2096ceecfc4f1edfeb30685e68fb5588702164736f6c63430008110033",
  "linkReferences": {},
  "deployedLinkReferences": {}
}